:10000000E9C0000006C1000004C1000002C10000F8
:1000100000C10000FEC00000FCC00000FAC00000EB
:10002000F8C00000F6C00000F4C00000F2C00000FC
:10003000F0C00000EEC00000ECC00000EAC000000C
:10004000E8C00000E6C00000E4C00000E2C000001C
:10005000E0C00000DEC00000DCC00000DAC000002C
:10006000D8C00000D6C00000D4C00000D2C000003C
:10007000D0C00000CEC00000CCC00000CAC000004C
:10008000C8C00000C6C00000C4C00000C2C000005C
:10009000C0C00000BEC00000BCC00000BAC000006C
:1000A000B8C00000B6C00000B4C00000B2C000007C
:1000B000B0C00000AEC00000ACC00000AAC000008C
:1000C000A8C00000A6C00000A4C00000A2C000009C
:1000D000A0C000009EC000009CC000009AC00000AC
:1000E00098C000007F018701870187018101870196
:1000F00083018501870187018701870187018701C6
:1001000087018701870187018701870187018701AF
:10011000870187018701870187018701870187019F
:10012000870187018701870187018701870187018F
:10013000870187018701870187018701870187017F
:10014000870187018701870187018701870187016F
:10015000870187018701870187018701870187015F
:10016000870187017701870187018701790187016D
:100170007B017D0187018701870187018701870155
:10018000870187018701870187018701870187012F
:10019000870187018701870187018701870187011F
:1001A000870187016F01870187018701710187013D
:1001B0007301750187018701870187018701870125
:1001C000870187016901870187018701890187010B
:1001D0006B016D0111241FBECFEFD1E2DEBFCDBF99
:1001E00000E00CBF12E0A0E0B2E0ECEDF6E000E0D1
:1001F0000BBF02C007900D92AC33B107D9F722E0D4
:10020000ACE3B2E001C01D92A234B207E1F710D214
:1002100063C2F6CE20E09FEE10C090930801E9EF94
:10022000F0E03197F1F700C00000809106018F7077
:100230008F3029F4990F9F5F2F5F243070F3907FE8
:10024000890F089580EF8093070108958FE08093D0
:100250000801809106018F708F30C1F789EF90E01F
:100260000197F1F700C000008FE0809308018091B2
:1002700006018F708F3051F708958FE08093080149
:10028000809106018F708F30C1F389EF90E0019764
:10029000F1F700C000008FE0809308018091060113
:1002A0008F708F3051F30895D1DF89EF90E001977F
:1002B000F1F700C00000E1DFADDF90E0FC01E7579F
:1002C000F109E837F10518F58827EE58FF4F8F4FF1
:1002D000FBC18AE2089584E3089581E3089580E3F1
:1002E000089588E3089585E3089582E3089583E2FD
:1002F000089589E3089586E3089583E3089584E4E7
:10030000089583E4089582E4089581E408958AE7D6
:10031000089587E3089585B1806285B9000085B1AD
:100320008F7D85B90895CF93C82F662331F0E2E021
:10033000F1E080818064808305C0E2E0F1E08081AB
:100340008F7B808385B18F7E85B98DB180628DB9B9
:1003500083B3806283BB8DB188608DB9E1E0F1E049
:10036000808188608083E2E0F1E08081877F808304
:100370008EB1877F8EB984B38F7D84BB8EB18F7D24
:100380008EB9CC231CF4808188608083C6FF03C0B3
:100390008EB188608EB9C5FF03C084B3806284BB10
:1003A000C4FF03C08EB180628EB9B5DFE2E0F1E038
:1003B0008081877F80838EB1877F8EB984B38F7D64
:1003C00084BB8EB18F7D8EB9C3FF03C080818860EE
:1003D0008083C2FF03C08EB188608EB9C1FF03C0A5
:1003E00084B3806284BBC0FF03C08EB180628EB9CB
:1003F00092DF8EB180628EB984B3806284BB8EB18D
:1004000088608EB9E2E0F1E0808188608083CF91DE
:100410000895882331F0E2E0F1E0808180648083F8
:1004200005C0E2E0F1E080818F7B808385B180614F
:1004300085B98DB18F7D8DB983B38F7D83BB8DB130
:10044000877F8DB9E1E0F1E08081877F808385B18E
:10045000806285B90000659902C080E001C080E13A
:1004600095998062639980649091000193FD806802
:1004700095B19F7D95B9000095B1906295B9000046
:10048000659981609599826063998460909100017B
:1004900093FD886095B19F7D95B9089580E0B9DF9F
:1004A0008823E4F300C000C080E0B3CF0895CF9369
:1004B000C82FF4DF60E08C2F36DFCF91089581E004
:1004C000F6CF0895CF93C82FE9DFCA3041F48034C6
:1004D00010F480E401C080E08058E9DF03C061E0EF
:1004E0008C2F21DFCF910895CF93DF93FC0102C0C1
:1004F000E9DFFE01EF01219680818111F9CFDF91C3
:10050000CF910895CF93C82FE1E0F1E0808180641E
:10051000808384B1806184B984B1806284B98DB1F3
:1005200080628DB983B3806283BB8DB188608DB9E1
:100530008081886080838FE99FE00197F1F700C098
:10054000000084B3806284BB8EB180628EB9E3DE2A
:1005500081EE94E00197F1F700C00000DCDE95E148
:100560009A95F1F70000D7DE85E18A95F1F7000052
:100570008EB18F7D8EB9CFDE95E19A95F1F70000AF
:1005800088E295DF88E093DF9ADF86E090DF8C2FAA
:100590008EDFCF9108959093C5008093C400E1EC65
:1005A000F0E0808188618083E2ECF0E080818E6001
:1005B000808308959091C00095FFFCCF8093C60082
:1005C00008958091C0008823E4F78091C6000895C3
:1005D00084B1876084B98CB581658CBD089595B16F
:1005E0009E7F95B98EBD0DB407FEFDCF8AE18A9539
:1005F000F1F700C08DE08EBD0DB407FEFDCF8AE19E
:100600008A95F1F700C085B1816085B908958CE0C5
:1006100079DF55DF8CE192E067DF2FEF83ED90E328
:10062000215080409040E1F700C000000BCE0895BB
:10063000CF93DF9300D0CDB7DEB7E9DF87E690E058
:10064000AADFECE3F2E08EE092E09383828380E025
:1006500092E091838083BCDF8FEF8EBD25DE2FEF8C
:1006600033EC99E0215030409040E1F700C00000A9
:100670008F3FA1F319821A821B82898320DF89E2CE
:1006800092E032DFCE0101962FDF88E3A8DF2FEF63
:1006900037EA81E6215030408040E1F700C0000099
:1006A00089E39DDF0CDF81E392E01EDF9FEF23E211
:1006B00034EF915020403040E1F700C00000FFDEF1
:1006C0008CE192E011DFCACFEE0FFF1F881F8BBFB6
:0C06D0000790F691E02D1994F894FFCFEC
:1006DC0000000001000000000000E102000000002A
:1006EC00000200000000DA020000000043686F6F97
:1006FC00736520666C6F6F7200466C6F6F723A2078
:0C070C0000446F6F72206F70656E00007B
:00000001FF
