:10000000E9C00000FEC00000FCC00000FAC0000013
:10001000F8C00000F6C00000F4C00000F2C000000C
:10002000F0C00000EEC00000ECC00000EAC000001C
:10003000E8C00000E6C00000E4C00000E2C000002C
:10004000E0C00000DEC00000DCC00000DAC000003C
:10005000D8C00000D6C00000D4C00000D2C000004C
:10006000D0C00000CEC00000CCC00000CAC000005C
:10007000C8C00000C6C00000C4C00000C2C000006C
:10008000C0C00000BEC00000BCC00000BAC000007C
:10009000B8C00000B6C00000B4C00000B2C000008C
:1000A000B0C00000AEC00000ACC00000AAC000009C
:1000B000A8C00000A6C00000A4C00000A2C00000AC
:1000C000A0C000009EC000009CC000009AC00000BC
:1000D00098C0000096C0000094C0000092C00000CC
:1000E00090C0000085018D018D018D0187018D017A
:1000F00089018B018D018D018D018D018D018D0196
:100100008D018D018D018D018D018D018D018D017F
:100110008D018D018D018D018D018D018D018D016F
:100120008D018D018D018D018D018D018D018D015F
:100130008D018D018D018D018D018D018D018D014F
:100140008D018D018D018D018D018D018D018D013F
:100150008D018D018D018D018D018D018D018D012F
:100160008D018D017D018D018D018D017F018D013D
:10017000810183018D018D018D018D018D018D0125
:100180008D018D018D018D018D018D018D018D01FF
:100190008D018D018D018D018D018D018D018D01EF
:1001A0008D018D0175018D018D018D0177018D010D
:1001B00079017B018D018D018D018D018D018D01F5
:1001C0008D018D016F018D018D018D018F018D01DB
:1001D0007101730111241FBECFEFD1E2DEBFCDBF8D
:1001E00000E00CBF12E0A0E0B2E0EAEAF7E000E0D5
:1001F0000BBF02C007900D92A233B107D9F706D208
:10020000D2C2FECE0AC02FE33DE043E02150304091
:100210004040E1F700C0000001970097A1F7089562
:1002200020E09FEE10C090930801E9EFF0E03197D5
:10023000F1F700C00000809106018F708F3029F423
:10024000990F9F5F2F5F243070F3907F890F08957F
:1002500080EF8093070108958FE0809308018091DB
:1002600006018F708F30C1F789EF90E00197F1F7A9
:1002700000C000008FE080930801809106018F701C
:100280008F3051F708958FE0809308018091060127
:100290008F708F30C1F389EF90E00197F1F700C0C4
:1002A00000008FE080930801809106018F708F30ED
:1002B00051F30895D1DF89EF90E00197F1F700C085
:1002C0000000E1DFADDF90E0FC01E757F109E8371E
:1002D000F10518F58827EE58FF4F8F4F29C28AE2A3
:1002E000089584E3089581E3089580E3089588E301
:1002F000089585E3089582E3089583E2089589E3EC
:10030000089586E3089583E3089584E4089583E4DB
:10031000089582E4089581E408958AE7089587E3C3
:10032000089585B1806285B9000085B18F7D85B95A
:100330000895CF93C82F662331F0E2E0F1E0808189
:100340008064808305C0E2E0F1E080818F7B808360
:1003500082B18E7F82B98DB180628DB983B38062A4
:1003600083BB8DB188608DB9E1E0F1E08081886068
:100370008083E2E0F1E08081877F80838EB1877F98
:100380008EB984B38F7D84BB8EB18F7D8EB9CC2323
:100390001CF4808188608083C6FF03C08EB18860B2
:1003A0008EB9C5FF03C084B3806284BBC4FF03C0A1
:1003B0008EB180628EB9B5DFE2E0F1E08081877FA7
:1003C00080838EB1877F8EB984B38F7D84BB8EB1DD
:1003D0008F7D8EB9C3FF03C0808188608083C2FF98
:1003E00003C08EB188608EB9C1FF03C084B3806240
:1003F00084BBC0FF03C08EB180628EB992DF8EB124
:1004000080628EB984B3806284BB8EB188608EB9FD
:10041000E2E0F1E0808188608083CF9108958823B5
:1004200031F0E2E0F1E080818064808305C0E2E0A9
:10043000F1E080818F7B808382B1816082B98DB150
:100440008F7D8DB983B38F7D83BB8DB1877F8DB950
:10045000E1E0F1E08081877F808385B1806285B9AA
:100460000000659902C080E001C080E1959980623A
:10047000639980649091000193FD806895B19F7DA0
:1004800095B9000095B1906295B9000065998160B9
:1004900095998260639984609091000193FD8860D2
:1004A00095B19F7D95B9089580E0B9DF8823E4F385
:1004B00000C000C080E0B3CF0895CF93C82FF4DF11
:1004C00060E08C2F36DFCF910895611103C0805812
:1004D000F4CF08958054F1CF089581E0EECF0895D0
:1004E000CF93C82FE1DFCA3041F4803410F480E4A8
:1004F00001C080E08058E1DF03C061E08C2F19DF8C
:10050000CF910895CF93DF93FC0102C0E9DFFE0194
:10051000EF01219680818111F9CFDF91CF9108956C
:10052000CF93C82FE1E0F1E080818064808381B1C6
:10053000816081B984B1806284B98DB180628DB9E6
:1005400083B3806283BB8DB188608DB98081886000
:1005500080838FE99FE00197F1F700C0000084B32A
:10056000806284BB8EB180628EB9DBDE81EE94E066
:100570000197F1F700C00000D4DE95E19A95F1F7FC
:100580000000CFDE85E18A95F1F700008EB18F7D06
:100590008EB9C7DE95E19A95F1F7000088E28DDF0C
:1005A00088E08BDF9ADF86E088DF8C2F86DFCF91B3
:1005B000089584B1876084B984B1877F84B985B197
:1005C000816085B981E58CBD08958EBD0DB407FEAF
:1005D000FDCF8EB5089595B19E7F95B9F6DF85B1B3
:1005E000816085B9089590ED980F81E09A3008F008
:1005F00080E0089580E1EFCF089581E1ECCF089588
:1006000082E1E9CF089583E1E6CF0895CF93DF93A8
:10061000CDB7DEB761970FB6F894DEBF0FBECDBF82
:1006200017DEC7DF8CE07CDF58DFE12C00E010E054
:1006300021E0E21609F446C0E21628F082E0E8164E
:1006400009F464C0F5CF49DF80E092E05BDF32DE81
:10065000F82EC9DF8823D9F361E080E036DF8F2DE3
:100660003FDF28DE082FBFDF8823D9F3802F38DF54
:100670008F2D90E0C097880F982F990F990F890FB1
:10068000080F00531017C9F0EE24E394D1CFB2DF66
:100690009FEF24E38CE0915020408040E1F700C0C0
:1006A0000000ABDF9FEF24E38CE0915020408040BE
:1006B000E1F700C00000F39401C0F12C92E09F1517
:1006C00030F7B6CF97DF101718F4FF24F39417C054
:1006D000FF24FA9414C01F0D61E080E0F6DE4AE0CA
:1006E000BE016F5F7F4F812F90E02AD08EE092E0B5
:1006F00009DFCE01019606DF83E090E083DD101371
:10070000EACF7BDF6894EE24E1F892CF79DFE5DE73
:1007100085E192E0F7DE85E090E074DD74DFDDDEF8
:1007200085E292E0EFDE81E090E06CDDE12C80CFAD
:10073000EE0FFF1F881F8BBF0790F691E02D1994D5
:10074000BB274A3031F4992322F4BDE2909581957C
:100750009F4F01C0BB27FB015527AA27880F991F70
:10076000AA1FA41710F0A41B83955051B9F7A05DE0
:10077000AA3308F0A95DA193009779F7B111B1935D
:100780001192CB0100C0DC01FC01672F719177232E
:10079000E1F7329704C07C916D9370836291AE173C
:0A07A000BF07C8F30895F894FFCFD7
:1007AA0043686F6F736520666C6F6F723A00466CB0
:1007BA006F6F722000446F6F72206F70656E696E82
:1007CA00672E2E2E00446F6F7220636C6F73656400
:0207DA0000001D
:00000001FF
