:10000000E9C0000006C1000004C1000002C10000F8
:1000100000C1000019C30000FCC00000FAC00000CD
:10002000F8C00000F6C00000F4C00000F2C00000FC
:10003000F0C00000EEC00000ECC00000EAC000000C
:10004000E8C0000010C30000E4C00000E2C00000EF
:10005000E0C00000DEC00000DCC00000DAC000002C
:10006000D8C00000D6C00000D4C00000D2C000003C
:10007000D0C00000CEC00000CCC00000CAC000004C
:10008000C8C00000C6C00000C4C00000C2C000005C
:10009000C0C00000BEC00000BCC00000BAC000006C
:1000A000B8C00000B6C00000B4C00000B2C000007C
:1000B000B0C00000AEC00000ACC00000AAC000008C
:1000C000A8C00000A6C00000A4C00000A2C000009C
:1000D000A0C000009EC000009CC000009AC00000AC
:1000E00098C000007F018701870187018101870196
:1000F00083018501870187018701870187018701C6
:1001000087018701870187018701870187018701AF
:10011000870187018701870187018701870187019F
:10012000870187018701870187018701870187018F
:10013000870187018701870187018701870187017F
:10014000870187018701870187018701870187016F
:10015000870187018701870187018701870187015F
:10016000870187017701870187018701790187016D
:100170007B017D0187018701870187018701870155
:10018000870187018701870187018701870187012F
:10019000870187018701870187018701870187011F
:1001A000870187016F01870187018701710187013D
:1001B0007301750187018701870187018701870125
:1001C000870187016901870187018701890187010B
:1001D0006B016D0111241FBECFEFD1E2DEBFCDBF99
:1001E00000E00CBF12E0A0E0B2E0EAE7FEE000E0D1
:1001F0000BBF02C007900D92A835B107D9F722E0D6
:10020000A8E5B2E001C01D92AD35B207E1F750D2CA
:1002100032C6F6CE20E09FEE10C090930801E9EFC1
:10022000F0E03197F1F700C00000809106018F7077
:100230008F3029F4990F9F5F2F5F243070F3907FE8
:10024000890F089580EF8093070108958FE08093D0
:100250000801809106018F708F30C1F789EF90E01F
:100260000197F1F700C000008FE0809308018091B2
:1002700006018F708F3051F708958FE08093080149
:10028000809106018F708F30C1F389EF90E0019764
:10029000F1F700C000008FE0809308018091060113
:1002A0008F708F3051F30895D1DF89EF90E001977F
:1002B000F1F700C00000E1DFADDF90E0FC01E7579F
:1002C000F109E837F10518F58827EE58FF4F8F4FF1
:1002D000E0C28AE2089584E3089581E3089580E30B
:1002E000089588E3089585E3089582E3089583E2FD
:1002F000089589E3089586E3089583E3089584E4E7
:10030000089583E4089582E4089581E408958AE7D6
:10031000089587E3089585B1806285B9000085B1AD
:100320008F7D85B90895CF93C82F662331F0E2E021
:10033000F1E080818064808305C0E2E0F1E08081AB
:100340008F7B808382B18E7F82B98DB180628DB9BF
:1003500083B3806283BB8DB188608DB9E1E0F1E049
:10036000808188608083E2E0F1E08081877F808304
:100370008EB1877F8EB984B38F7D84BB8EB18F7D24
:100380008EB9CC231CF4808188608083C6FF03C0B3
:100390008EB188608EB9C5FF03C084B3806284BB10
:1003A000C4FF03C08EB180628EB9B5DFE2E0F1E038
:1003B0008081877F80838EB1877F8EB984B38F7D64
:1003C00084BB8EB18F7D8EB9C3FF03C080818860EE
:1003D0008083C2FF03C08EB188608EB9C1FF03C0A5
:1003E00084B3806284BBC0FF03C08EB180628EB9CB
:1003F00092DF8EB180628EB984B3806284BB8EB18D
:1004000088608EB9E2E0F1E0808188608083CF91DE
:100410000895882331F0E2E0F1E0808180648083F8
:1004200005C0E2E0F1E080818F7B808382B1816052
:1004300082B98DB18F7D8DB983B38F7D83BB8DB133
:10044000877F8DB9E1E0F1E08081877F808385B18E
:10045000806285B90000659902C080E001C080E13A
:1004600095998062639980649091000193FD806802
:1004700095B19F7D95B9000095B1906295B9000046
:10048000659981609599826063998460909100017B
:1004900093FD886095B19F7D95B9089580E0B9DF9F
:1004A0008823E4F300C000C080E0B3CF0895CF9369
:1004B000C82FF4DF60E08C2F36DFCF9108956111F3
:1004C00003C08058F4CF08958054F1CF089581E09F
:1004D000EECF0895CF93C82FE1DFCA3041F48034C6
:1004E00010F480E401C080E08058E1DF03C061E0E7
:1004F0008C2F19DFCF910895CF93DF93FC0102C0B9
:10050000E9DFFE01EF01219680818111F9CFDF91B2
:10051000CF910895CF93C82FE1E0F1E0808180640E
:10052000808381B1816081B984B1806284B98DB1E9
:1005300080628DB983B3806283BB8DB188608DB9D1
:100540008081886080838FE99FE00197F1F700C088
:10055000000084B3806284BB8EB180628EB9DBDE22
:1005600081EE94E00197F1F700C00000D4DE95E140
:100570009A95F1F70000CFDE85E18A95F1F700004A
:100580008EB18F7D8EB9C7DE95E19A95F1F70000A7
:1005900088E28DDF88E08BDF9ADF86E088DF8C2FB2
:1005A00086DFCF9108959C01ADECBCEC7AD1969595
:1005B0008795969587959695879540915802509185
:1005C000590260915A0270915B02480F591F611DD8
:1005D000711D8091580290915902A0915A02B091D8
:1005E0005B0284179507A607B70798F3089584B1AF
:1005F000876084B984B1877F84B985B1816085B90A
:1006000081E58CBD08958EBD0DB407FEFDCF8EB57E
:10061000089595B19E7F95B9F6DF85B1816085B962
:10062000089590ED980F81E09A3008F080E00895E9
:1006300080E1EFCF089581E1ECCF089582E1E9CF29
:10064000089583E1E6CF08951F920F920FB60F929F
:1006500011248F9381E080935C028F910F900FBEE5
:100660000F901F9018951F920F920FB60F921124A2
:100670008F939F93AF93BF938091580290915902AB
:10068000A0915A02B0915B020196A11DB11D809309
:10069000580290935902A0935A02B0935B02BF9103
:1006A000AF919F918F910F900FBE0F901F90189553
:1006B000CF93DF93CDB7DEB761970FB6F894DEBF67
:1006C0000FBECDBF8DB18F7E8DB98EB180618EB9D9
:1006D000EAE6F0E08081826080838DB380618DBB2B
:1006E0007894B0DD84DF8DE0809381008BE990E029
:1006F000909389008093880082E080936F008CE063
:1007000009DFE5DEE12C00E010E003C06894EE2490
:10071000E1F881E0E81609F43EC0E81648F092E0FE
:10072000E91609F473C083E0E81609F481C0F1CF3B
:10073000CEDE80E092E0E0DEB7DDF82E72DF8823C7
:10074000D9F361E080E0BBDE8F2DC4DEADDD082F84
:1007500068DF8823D9F3802FBDDE8F2D90E0C0970E
:10076000880F982F990F990F890F080F00531017B2
:1007700069F0EE24E394CDCF5BDF84EF91E013DFEB
:100780005ADF84EF91E00FDFF39401C0F12C92E087
:100790009F1590F7BECF4CDF101718F4DD24D394CB
:1007A0001EC0DD24DA941BC01D0D61E080E087DEF1
:1007B0001F921F938EE092E09F938F93CE0101963C
:1007C0007C019F938F937CD0C70196DE8AEF90E0E7
:1007D000EADE0F900F900F900F900F900F90101770
:1007E00021F080915C028823F9F280915C028111F2
:1007F00002C085E20EDF1FDF80915C02882309F4CE
:1008000085CF0F2EF3E0EF2EF02D83CF17DF5FDEC5
:1008100089E192E071DE88E893E1C5DE12DF57DE00
:1008200089E292E069DE8CED95E0BDDEE12C71CFCE
:1008300010925C024CDE85E392E05EDE80E2E9DE4F
:10084000F12C09C0F5DE8CE291E0ADDEF4DE8CE245
:1008500091E0A9DEF39492E09F15A0F738DE87E4DB
:1008600092E04ADE21DD8332E9F7E8DE85E2D1DE7F
:100870002EDE89E192E040DE88E893E194DEE1DE5D
:1008800026DE89E292E038DE8CED95E08CDEE12C0C
:1008900040CFEE0FFF1F881F8BBF0790F691E02D12
:1008A0001994A29FB001B39FC001A39F700D811D39
:1008B0001124911DB29F700D811D1124911D089569
:1008C0000F931F93CF93DF93CDB7DEB72E970FB65D
:1008D000F894DEBF0FBECDBF0E891F8986E08C83E2
:1008E0001A8309838FEF9FE79E838D83AE01465E57
:1008F0005F4F688D798DCE01019610D0EF81F8851C
:10090000E00FF11F10822E960FB6F894DEBF0FBED7
:10091000CDBFDF91CF911F910F9108952F923F92FC
:100920004F925F926F927F928F929F92AF92BF92FF
:10093000CF92DF92EF92FF920F931F93CF93DF93AB
:10094000CDB7DEB72B970FB6F894DEBF0FBECDBF85
:100950006C017B018A01FC0117821682838181FF71
:10096000BFC1CE0101963C01F6019381F70193FDD1
:10097000859193FF81917F01882309F4ADC1853270
:1009800039F493FD859193FF81917F01853221F4A4
:10099000B60190E0D6D1E8CF912C212C312CFFE18B
:1009A000F315D8F08B3279F038F4803279F0833255
:1009B000A1F4232D20611DC08D3261F0803369F4D4
:1009C000232D216016C0832D8260382EE32DE46034
:1009D0003E2E2AC0F32DF8601DC037FC2DC020ED3F
:1009E000280F2A3040F08E32B9F436FC75C1232D21
:1009F0002064322E19C036FE06C08AE0989E200D73
:100A00001124922E11C0EAE02E9E200D1124222ED8
:100A1000F32DF0623F2E08C08C3621F4832D8068C0
:100A2000382E02C0883641F4F70193FD859193FF7B
:100A300081917F018111B3CF982F9F7D9554933081
:100A400028F40C5F1F4F9FE399830DC0833631F06C
:100A5000833771F0833509F055C020C0F8018081DB
:100A600089830E5F1F4F88248394912C530112C0F9
:100A70002801F2E04F0E511CF801A080B18036FE33
:100A800003C0692D70E002C06FEF7FEFC5014ED14A
:100A90004C018201F32DFF773F2E15C0280122E083
:100AA000420E511CF801A080B18036FE03C0692DB2
:100AB00070E002C06FEF7FEFC5012DD14C01F32D27
:100AC000F0683F2E820133FC19C0822D90E0881619
:100AD0009906A0F4B60180E290E033D12A94F5CFD4
:100AE000F50137FC859137FE81915F01B60190E0F9
:100AF00028D121102A9421E0821A910881149104AE
:100B000079F7E1C0843611F0893639F5F80137FEFE
:100B100007C060817181828193810C5F1F4F08C083
:100B200060817181072E000C880B990B0E5F1F4F9F
:100B3000F32DFF763F2E97FF09C090958095709515
:100B400061957F4F8F4F9F4FF0683F2E2AE030E036
:100B5000A30133D1882E861844C0853731F4232D64
:100B60002F7EB22E2AE030E025C0932D997FB92E3A
:100B70008F36C1F018F4883579F0AEC0803719F09F
:100B8000883721F0A9C0E92FE061BE2EB4FE0DC068
:100B9000FB2DF460BF2E09C034FE0AC0292F266049
:100BA000B22E06C028E030E005C020E130E002C0EF
:100BB00020E132E0F801B7FE07C0608171818281D7
:100BC00093810C5F1F4F06C06081718180E090E0CF
:100BD0000E5F1F4FA301F1D0882E8618FB2DFF77E3
:100BE0003F2E36FE0DC0232D2E7FA22E891458F4E1
:100BF00034FE0BC032FC09C0832D8E7EA82E05C0AA
:100C0000B82CA32C03C0B82C01C0B92CA4FE0FC073
:100C1000FE01E80DF11D8081803321F49A2D997E2B
:100C2000A92E09C0A2FE06C0B394B39404C08A2DB5
:100C3000867809F0B394A3FC10C0A0FE06C0B214DD
:100C400080F4280C922C9B180DC0B21458F4B601F5
:100C500080E290E076D0B394F8CFB21418F42B1859
:100C600002C0982C212CA4FE0FC0B60180E390E0B6
:100C700068D0A2FE16C0A1FC03C088E790E002C0C5
:100C800088E590E0B6010CC08A2D867851F0A1FE6F
:100C900002C08BE201C080E2A7FC8DE2B60190E0C9
:100CA00050D0891430F4B60180E390E04AD09A9491
:100CB000F8CF8A94F301E80DF11D8081B60190E030
:100CC00040D08110F6CF222009F44ECEB60180E24A
:100CD00090E037D02A94F7CFF6018681978102C041
:100CE0008FEF9FEF2B960FB6F894DEBF0FBECDBFF0
:100CF000DF91CF911F910F91FF90EF90DF90CF90F8
:100D0000BF90AF909F908F907F906F905F904F902B
:100D10003F902F900895FC010590615070400110A4
:100D2000D8F7809590958E0F9F1F0895FC01615014
:100D3000704001900110D8F7809590958E0F9F1FFD
:100D400008950F931F93CF93DF93FB01238121FD20
:100D500003C08FEF9FEF2CC022FF16C04681578142
:100D6000248135814217530744F4A081B1819D014C
:100D70002F5F3F4F318320838C93268137812F5FF4
:100D80003F4F3783268314C08B01EC01FB010084A5
:100D9000F185E02D1995892BE1F6D80116968D91F4
:100DA0009C911797019617969C938E931697CE0158
:100DB000DF91CF911F910F910895FA01AA27283052
:100DC00051F1203181F1E8946F936E7F6E5F7F4F18
:100DD0008F4F9F4FAF4FB1E03ED0B4E03CD0670F94
:100DE000781F891F9A1FA11D680F791F8A1F911DE7
:100DF000A11D6A0F711D811D911DA11D20D009F437
:100E000068943F912AE0269F11243019305D319378
:100E1000DEF6CF010895462F4770405D4193B3E061
:100E20000FD0C9F7F6CF462F4F70405D4A3318F008
:100E3000495D31FD4052419302D0A9F7EACFB4E0B9
:100E4000A6959795879577956795BA95C9F7009771
:100E50006105710508959B01AC010A2E0694579512
:100E6000479537952795BA95C9F7620F731F841F69
:0A0E7000951FA01D0895F894FFCF10
:100E7A0043686F6F736520666C6F6F723A00466CD9
:100E8A006F6F72202530327500446F6F72206F7059
:100E9A00656E696E672E2E2E00446F6F7220636C2A
:100EAA006F7365640021212120454D455247454E07
:100EBA004359202121210050726573732023207425
:080ECA006F206F70656E0000DF
:00000001FF
