:10000000E9C0000006C1000004C1000002C10000F8
:1000100000C10000F5C20000FCC00000FAC00000F2
:10002000F8C00000F6C00000F4C00000F2C00000FC
:10003000F0C00000EEC00000ECC00000EAC000000C
:10004000E8C00000E6C00000E4C00000E2C000001C
:10005000E0C00000DEC00000DCC00000DAC000002C
:10006000D8C00000D6C00000D4C00000D2C000003C
:10007000D0C00000CEC00000CCC00000CAC000004C
:10008000C8C00000C6C00000C4C00000C2C000005C
:10009000C0C00000BEC00000BCC00000BAC000006C
:1000A000B8C00000B6C00000B4C00000B2C000007C
:1000B000B0C00000AEC00000ACC00000AAC000008C
:1000C000A8C00000A6C00000A4C00000A2C000009C
:1000D000A0C000009EC000009CC000009AC00000AC
:1000E00098C000007F018701870187018101870196
:1000F00083018501870187018701870187018701C6
:1001000087018701870187018701870187018701AF
:10011000870187018701870187018701870187019F
:10012000870187018701870187018701870187018F
:10013000870187018701870187018701870187017F
:10014000870187018701870187018701870187016F
:10015000870187018701870187018701870187015F
:10016000870187017701870187018701790187016D
:100170007B017D0187018701870187018701870155
:10018000870187018701870187018701870187012F
:10019000870187018701870187018701870187011F
:1001A000870187016F01870187018701710187013D
:1001B0007301750187018701870187018701870125
:1001C000870187016901870187018701890187010B
:1001D0006B016D0111241FBECFEFD1E2DEBFCDBF99
:1001E00000E00CBF12E0A0E0B2E0E2EAF8E000E0DC
:1001F0000BBF02C007900D92A434B107D9F722E0DB
:10020000A4E4B2E001C01D92A534B207E1F707D221
:1002100046C3F6CE20E09FEE10C090930801E9EFB0
:10022000F0E03197F1F700C00000809106018F7077
:100230008F3029F4990F9F5F2F5F243070F3907FE8
:10024000890F089580EF8093070108958FE08093D0
:100250000801809106018F708F30C1F789EF90E01F
:100260000197F1F700C000008FE0809308018091B2
:1002700006018F708F3051F708958FE08093080149
:10028000809106018F708F30C1F389EF90E0019764
:10029000F1F700C000008FE0809308018091060113
:1002A0008F708F3051F30895D1DF89EF90E001977F
:1002B000F1F700C00000E1DFADDF90E0FC01E7579F
:1002C000F109E837F10518F58827EE58FF4F8F4FF1
:1002D000ABC28AE2089584E3089581E3089580E340
:1002E000089588E3089585E3089582E3089583E2FD
:1002F000089589E3089586E3089583E3089584E4E7
:10030000089583E4089582E4089581E408958AE7D6
:10031000089587E3089585B1806285B9000085B1AD
:100320008F7D85B90895CF93C82F662331F0E2E021
:10033000F1E080818064808305C0E2E0F1E08081AB
:100340008F7B808382B18E7F82B98DB180628DB9BF
:1003500083B3806283BB8DB188608DB9E1E0F1E049
:10036000808188608083E2E0F1E08081877F808304
:100370008EB1877F8EB984B38F7D84BB8EB18F7D24
:100380008EB9CC231CF4808188608083C6FF03C0B3
:100390008EB188608EB9C5FF03C084B3806284BB10
:1003A000C4FF03C08EB180628EB9B5DFE2E0F1E038
:1003B0008081877F80838EB1877F8EB984B38F7D64
:1003C00084BB8EB18F7D8EB9C3FF03C080818860EE
:1003D0008083C2FF03C08EB188608EB9C1FF03C0A5
:1003E00084B3806284BBC0FF03C08EB180628EB9CB
:1003F00092DF8EB180628EB984B3806284BB8EB18D
:1004000088608EB9E2E0F1E0808188608083CF91DE
:100410000895882331F0E2E0F1E0808180648083F8
:1004200005C0E2E0F1E080818F7B808382B1816052
:1004300082B98DB18F7D8DB983B38F7D83BB8DB133
:10044000877F8DB9E1E0F1E08081877F808385B18E
:10045000806285B90000659902C080E001C080E13A
:1004600095998062639980649091000193FD806802
:1004700095B19F7D95B9000095B1906295B9000046
:10048000659981609599826063998460909100017B
:1004900093FD886095B19F7D95B9089580E0B9DF9F
:1004A0008823E4F300C000C080E0B3CF0895CF9369
:1004B000C82FF4DF60E08C2F36DFCF9108956111F3
:1004C00003C08058F4CF08958054F1CF089581E09F
:1004D000EECF0895CF93C82FE1DFCA3041F48034C6
:1004E00010F480E401C080E08058E1DF03C061E0E7
:1004F0008C2F19DFCF910895CF93DF93FC0102C0B9
:10050000E9DFFE01EF01219680818111F9CFDF91B2
:10051000CF910895CF93C82FE1E0F1E0808180640E
:10052000808381B1816081B984B1806284B98DB1E9
:1005300080628DB983B3806283BB8DB188608DB9D1
:100540008081886080838FE99FE00197F1F700C088
:10055000000084B3806284BB8EB180628EB9DBDE22
:1005600081EE94E00197F1F700C00000D4DE95E140
:100570009A95F1F70000CFDE85E18A95F1F700004A
:100580008EB18F7D8EB9C7DE95E19A95F1F70000A7
:1005900088E28DDF88E08BDF9ADF86E088DF8C2FB2
:1005A00086DFCF91089584B1876084B984B1877F55
:1005B00084B985B1816085B981E58CBD08958EBD12
:1005C0000DB407FEFDCF8EB5089595B19E7F95B908
:1005D000F6DF85B1816085B9089590ED980F81E0CF
:1005E0009A3008F080E0089580E1EFCF089581E12E
:1005F000ECCF089582E1E9CF089583E1E6CF089535
:100600001F920F920FB60F9211248F9381E0809367
:1006100044028F910F900FBE0F901F901895CF93AB
:10062000DF93CDB7DEB761970FB6F894DEBF0FBE8C
:10063000CDBF8DB18F7E8DB98EB180618EB9EAE666
:10064000F0E08081826080838DB380618DBB78947F
:10065000F9DDA9DF8CE05EDF3ADFE12C00E010E09D
:1006600003C06894EE24E1F821E0E21609F44AC0E0
:10067000E21648F082E0E81609F478C093E0E91643
:1006800009F492C0F1CF23DF80E092E035DF0CDE89
:10069000F82EA3DF8823D9F361E080E010DF8F2DEF
:1006A00019DF02DE082F99DF8823D9F3802F12DFAC
:1006B0008F2D90E0C097880F982F990F990F890F71
:1006C000080F00531017C9F0EE24E394CDCF8CDF50
:1006D0002FEF89E698E1215080409040E1F700C07B
:1006E000000085DF2FEF89E698E12150804090409F
:1006F000E1F700C00000F39401C0F12C22E02F15B7
:1007000030F7B2CF71DF101718F4FF24F3941DC037
:10071000FF24FA941AC01F0D61E080E0D0DE4AE0A9
:10072000BE016F5F7F4F812F90E086D08EE092E018
:10073000E3DECE010196E0DE8FEF94E32CE0815002
:1007400090402040E1F700C00000101721F0809198
:100750004402882301F34BDF80914402882309F48B
:1007600080CF0F2EF3E0EF2EF02D7ECF43DFAFDEF4
:1007700085E192E0C1DE8FEF93E224EF815090405B
:100780002040E1F700C0000038DFA1DE85E292E002
:10079000B3DE8FEF9DE329E4815090402040E1F7E4
:1007A00000C00000E12C60CF1092440290DE81E393
:1007B00092E0A2DEF12C15C017DF8FEF95EA2EE054
:1007C000815090402040E1F700C0000010DF8FEF23
:1007D00095EA2EE0815090402040E1F700C00000F3
:1007E000F39482E08F1540F705DF80E2EEDE6FDEE6
:1007F00085E192E081DE9FEF23E284EF915020407B
:100800008040E1F700C00000F8DE61DE85E292E0A2
:1008100073DE9FEF2DE389E4915020408040E1F7A3
:1008200000C00000E12C20CFEE0FFF1F881F8BBF00
:100830000790F691E02D1994BB274A3031F49923A3
:1008400022F4BDE2909581959F4F01C0BB27FB012B
:100850005527AA27880F991FAA1FA41710F0A41BB9
:1008600083955051B9F7A05DAA3308F0A95DA19313
:10087000009779F7B111B1931192CB0100C0DC015F
:10088000FC01672F71917723E1F7329704C07C91C7
:100890006D9370836291AE17BF07C8F30895F89403
:0208A000FFCF88
:1008A20043686F6F736520666C6F6F723A00466CB7
:1008B2006F6F722000446F6F72206F70656E696E89
:1008C200672E2E2E00446F6F7220636C6F73656407
:1008D2000021212120454D455247454E43592021B3
:0408E20021210000D0
:00000001FF
