:100000000C9434000C9446000C9446000C9446006A
:100010000C9446000C9446000C9446000C94460048
:100020000C9446000C9446000C9446000C94460038
:100030000C9446000C9446000C9446000C94460028
:100040000C9446000C9487000C9446000C944600D7
:100050000C9446000C9446000C9446000C94460008
:100060000C9446000C94460011241FBECFEFD8E03C
:10007000DEBFCDBF21E0A0E0B1E001C01D92A23003
:10008000B207E1F70E94A0000C94B8000C940000A5
:1000900084B1836084B9089584B1806184B98CB5DA
:1000A000806C8CBD8FEF8EBD089585B1816085B960
:1000B0002FEF83ED90E3215080409040E1F700C0A6
:1000C000000085B18E7F85B92FEF83ED90E321503D
:1000D00080409040E1F700C00000089585B1826043
:1000E00085B92FEF83ED90E3215080409040E1F7F8
:1000F00000C0000085B18D7F85B92FEF83ED90E3BF
:10010000215080409040E1F700C0000008951F9208
:100110000F920FB60F9211248F939F938EB59FEF7E
:100120009EBD8D3021F481E08093000102C0809358
:1001300001019F918F910F900FBE0F901F90189506
:100140000E9448000E944C0078948091000188230E
:10015000E1F380910101883319F0893321F005C062
:100160000E94550002C00E946E0010920001EDCF67
:04017000F894FFCF31
:00000001FF
