S013000050726F6A6563745F554E4F2E73726563E9
S11300000C9434000C9446000C9446000C94460066
S11300100C9446000C9446000C9446000C94460044
S11300200C9446000C9446000C9446000C940D016C
S11300300C9446000C9446000C9446000C94460024
S11300400C9446000C94DA000C9446000C94460080
S11300500C9446000C9446000C9446000C94460004
S11300600C9446000C94460011241FBECFEFD8E038
S1130070DEBFCDBF21E0A0E0B1E001C01D92A230FF
S1130080B207E1F70E941F010C943F010C94000099
S113009084B1806184B980EC8CBD08958AB1886094
S11300A08AB91092800088E080938100089590932B
S11300B08900809388001092850010928400E1E802
S11300C0F0E0808181608083EFE6F0E080818260EF
S11300D080830895E1E8F0E080818E7F8083EFE6FD
S11300E0F0E080818D7F80838BB1877F8BB9089509
S11300F0CF93DF93EB010E94570007C0EFE9FFE0C5
S11301003197F1F700C00000EC01CE010197CD2B2F
S1130110A9F70E946A00FFEF20E782E0F150204037
S11301208040E1F700C00000DF91CF9108956EE3B5
S113013070E083E69AE60E9478006EE370E083E65E
S11301409AE60E94780068E670E081E395E30E94F5
S1130150780068E670E085E097E40E9478006AEF32
S113016070E08EE19BE40E9478006AEF70E088EB17
S11301709FE40E9478006EE370E08BE799E50E94AB
S113018078006EE370E083E69AE60E9478006EE3FE
S113019070E08BE799E50E9478006EE370E088EBED
S11301A09FE40E9478006EE370E087EB9BE30E947B
S11301B0780008951F920F920FB60F9211248F9317
S11301C08EB58231A9F028F4803151F0813161F08B
S11301D01EC08032A9F08532B9F08331C1F40CC05D
S11301E085B1816085B913C085B18E7F85B90FC093
S11301F085B1826085B90BC085B18D7F85B907C093
S113020081E08093010103C081E0809300018F911C
S11302100F900FBE0F901F9018951F920F920FB65C
S11302200F9211248F939F939BB188E089278BB9F8
S11302309F918F910F900FBE0F901F90189584B1CE
S1130240836084B985B18C7F85B90E944E000E9479
S11302504800789480910101882321F010920101D3
S11302600E949700809100018823A1F3109200015D
S113027064E670E080E89EE30E947800EBCFF89497
S1050280FFCFAA
S9030000FC
