S013000050726F6A6563745F554E4F2E73726563E9
S11300000C9434000C9446000C9446000C94460066
S11300100C9446000C9446000C9446000C94460044
S11300200C9446000C9446000C9446000C94070172
S11300300C9446000C9446000C9446000C94460024
S11300400C9446000C94DA000C9446000C94460080
S11300500C9446000C9446000C9446000C94460004
S11300600C9446000C94460011241FBECFEFD8E038
S1130070DEBFCDBF21E0A0E0B1E001C01D92A13000
S1130080B207E1F70E9419010C942D010C940000B1
S113009084B1806184B980EC8CBD08958AB1886094
S11300A08AB91092800088E080938100089590932B
S11300B08900809388001092850010928400E1E802
S11300C0F0E0808181608083EFE6F0E080818260EF
S11300D080830895E1E8F0E080818E7F8083EFE6FD
S11300E0F0E080818D7F80838BB1877F8BB9089509
S11300F0CF93DF93EB010E94570007C0EFE9FFE0C5
S11301003197F1F700C00000EC01CE010197CD2B2F
S1130110A9F70E946A00FFEF20E782E0F150204037
S11301208040E1F700C00000DF91CF9108956EE3B5
S113013070E083E69AE60E9478006EE370E083E65E
S11301409AE60E94780068E670E081E395E30E94F5
S1130150780068E670E085E097E40E9478006AEF32
S113016070E08EE19BE40E9478006AEF70E088EB17
S11301709FE40E9478006EE370E08BE799E50E94AB
S113018078006EE370E083E69AE60E9478006EE3FE
S113019070E08BE799E50E9478006EE370E088EBED
S11301A09FE40E9478006EE370E087EB9BE30E947B
S11301B0780008951F920F920FB60F9211248F9317
S11301C08EB5823199F028F4803141F0813151F0BB
S11301D018C0833179F0803289F013C085B1816011
S11301E085B90FC085B18E7F85B90BC085B182609A
S11301F085B907C085B18D7F85B903C081E080933F
S113020000018F910F900FBE0F901F9018951F92B1
S11302100F920FB60F9211248F939F939BB188E096
S113022089278BB99F918F910F900FBE0F901F90CC
S1130230189584B1836084B985B18C7F85B90E9497
S11302404E000E9448007894809100018823E1F3D5
S1110250109200010E949700F7CFF894FFCFA0
S9030000FC
