S013000050726F6A6563745F554E4F2E73726563E9
S11300000C9434000C943E000C943E000C943E007E
S11300100C943E000C943E000C943E000C943E0064
S11300200C943E000C943E000C943E000C943E0054
S11300300C943E000C943E000C943E000C943E0044
S11300400C943E000C9446000C943E000C943E002C
S11300500C943E000C943E000C943E000C943E0024
S11300600C943E000C943E0011241FBECFEFD8E048
S1130070DEBFCDBF0E946D000C947D000C94000087
S113008084B1806184B980EC8CBD08951F920F9275
S11300900FB60F9211248F938EB5813169F018F445
S11300A0803131F014C0823159F0833169F00FC0CE
S11300B085B1816085B90BC085B18E7F85B907C0D4
S11300C085B1826085B903C085B18D7F85B98F9173
S11300D00F900FBE0F901F90189584B1816084B962
S11300E084B1826084B985B18E7F85B985B18D7FF5
S11100F085B90E9440007894FFCFF894FFCFAA
S9030000FC
